:020000040800F2
:100000000000022095110008E5110008E511000824
:10001000E5110008E5110008E511000800000000E6
:10002000000000000000000000000000E5110008D2
:10003000E511000800000000E5110008710F00083C
:10004000E5110008E5110008E5110008E5110008B8
:10005000E5110008E5110008E5110008E5110008A8
:10006000E5110008E5110008E5110008E511000898
:10007000E5110008E5110008E5110008E511000888
:10008000E5110008E5110008E5110008E511000878
:10009000E5110008E5110008E5110008E511000868
:1000A000E5110008E5110008E5110008E511000858
:1000B000E5110008E5110008E5110008E511000848
:1000C000E5110008E5110008E5110008E511000838
:1000D000E5110008E5110008E5110008E511000828
:1000E000E5110008E5110008E5110008E511000818
:1000F000E5110008E5110008E5110008E511000808
:10010000E5110008E5110008E5110008E5110008F7
:10011000E5110008E5110008E5110008E5110008E7
:10012000E5110008E5110008E5110008E5110008D7
:10013000E5110008E5110008E5110008E5110008C7
:10014000E5110008E5110008E5110008E5110008B7
:10015000E5110008E5110008E5110008E5110008A7
:10016000E5110008E5110008E5110008E511000897
:10017000E5110008E5110008E51100080000000085
:08018000E5110008E51100087B
:1001880010B5054C237833B9044B13B10448AFF3C9
:1001980000800123237010BD04000020000000002F
:1001A80034120008084B10B51BB108490848AFF3D2
:1001B80000800848036803B910BD074B002BFBD02B
:1001C800BDE81040184700BF0000000008000020EC
:1001D80034120008040000200000000053B94AB996
:1001E800002908BF00281CBF4FF0FF314FF0FF3037
:1001F80000F07EB9ADF1080C6DE904CE00F006F808
:10020800DDF804E0DDE9022304B070472DE9F0478A
:100218008C460E460446089D002B50D18A4217464C
:100228006CD9B2FA82FEBEF1000F0BD0CEF12004D9
:1002380020FA04F401FA0EF644EA060C02FA0EF764
:1002480000FA0EF44FEA1749220CBCFBF9F01FFA2A
:1002580087F809FB10C642EA064600FB08F3B342DA
:1002680009D9F61900F1FF3280F02281B34240F239
:100278001F8102383E44F61AA2B2B6FBF9F309FB15
:10028800136642EA064403FB08F8A04509D9E419B5
:1002980003F1FF3280F00A81A04540F20781023B5A
:1002A8003C44C8EB040443EA00400021002D62D01E
:1002B80024FA0EF400232C606B60BDE8F0878B42B3
:1002C80007D9002D55D0002185E841000846BDE832
:1002D800F087B3FA83F1002940F09080B34202D34B
:1002E800824200F2F880841A66EB03060120B446C5
:1002F800002D40D085E81010BDE8F08712B901271D
:10030800B7FBF2F7B7FA87FEBEF1000F35D1F31B42
:100318004FEA17481FFA87FC0121B3FBF8F0220CBB
:1003280008FB103642EA06460CFB00F3B34207D935
:10033800F61900F1FF3202D2B34200F2CE80104625
:10034800F61AA2B2B6FBF8F308FB136642EA0644B3
:100358000CFB03FCA44507D9E41903F1FF3202D2D0
:10036800A44500F2B5801346CCEB040443EA0040F0
:100378009CE729462846BDE8F087CEF1200106FA19
:100388000EF307FA0EF720FA01F94FEA1748CE40A4
:1003980049EA0309B6FBF8FA4FEA194408FB1A665A
:1003A8001FFA87FC44EA06430AFB0CF29A4200FA59
:1003B8000EF40AD9DB190AF1FF3180F087809A42DE
:1003C80040F28480AAF1020A3B449B1A1FFA89F979
:1003D800B3FBF8F108FB113349EA034301FB0CF6C0
:1003E8009E4207D9DB1901F1FF326BD29E4269D9CF
:1003F80002393B449B1B41EA0A418EE7C1F1200EBA
:1004080022FA0EF48B40234320FA0EF706FA01F481
:100418004FEA134C26FA0EF63C43B6FBFCF9270CC0
:100428000CFB19661FFA83F847EA064609FB08F72A
:10043800B74202FA01F200FA01FA08D9F61809F1EE
:10044800FF3041D2B7423FD9A9F102091E44F61B39
:10045800A0B2B6FBFCF40CFB146640EA064704FBAA
:1004680008F8B84507D9FF1804F1FF3028D2B84575
:1004780026D9023C1F4444EA0940C8EB0707A0FB01
:1004880002894F4544464E4614D329D065B3BAEB8A
:10049800040367EB060707FA0EFECB40CF404EEA8F
:1004A800030385E888000021BDE8F0871346F8E6D5
:1004B8001046E0E6B8EB020469EB03060138E5E70D
:1004C8000446D8E7114695E78146C0E78A467CE7A7
:1004D800023B3C4448E708460AE702383E442FE717
:1004E800C245E7D33E46D1E72946BDE8F08700BFBD
:1004F800704700BF2DE9F04F8DB000240194774B71
:100508001A6B42F010021A631A6B02F01002019281
:10051800019A02941A6B42F004021A631A6B02F0F1
:1005280004020292029A03941A6B42F080021A6340
:100538001A6B02F080020392039A04941A6B42F039
:1005480001021A631A6B02F001020492049A0594DC
:100558001A6B42F002021A631A6B02F00202059249
:10056800059A06941A6B42F008021A631B6B03F093
:1005780008030693069B22460821594800F000FE0E
:10058800DFF8748101221146404600F0F9FD224649
:100598004FF21001534800F0F3FD08250795012696
:1005A800089609940A9407A94D4800F009FD079692
:1005B800089609940A9407A9404600F001FD07959A
:1005C8000225089509940A944FF00509CDF82C9056
:1005D80007A9404600F0F4FC0796434B089309949A
:1005E800424F07A9384600F0EBFC10230793089503
:1005F80009940A944FF0060BCDF82CB007A9384699
:1006080000F0DEFCE0230793089509940A94CDF8DE
:100618002C9007A9384600F0D3FC4FF0040ACDF817
:100628001CA00894099407A9314800F0C9FC4FF4AC
:1006380080630793089509940A94CDF82C9007A92C
:100648002B4800F0BDFC4FF210030793089609945D
:100658000A9407A9234800F0B3FC4FF4A453079366
:10066800089509940A94CDF82CB007A9404600F0E3
:10067800A7FC4FF4007307930894099407A9384618
:1006880000F09EFC4FF4E0530793089509940A94F0
:100698000A230B9307A9384600F092FC20230793FE
:1006A8000894099407A90F4800F08AFC4FF41073C6
:1006B80007931223089309960A94CDF82CA007A94A
:1006C8000B4800F07DFC07950A4B0893099407A98D
:1006D800034800F075FC0DB0BDE8F08F003802400B
:1006E80000100240000C02400000111000000240FF
:1006F800000402400000121000080240FEE700BF9C
:1007080000B595B0002301932A4A116C41F080513D
:100718001164126C02F080520192019A0293264AE7
:10072800116841F480411160126802F4804202921B
:10073800029A0222089201210B9110210C910E922B
:100748000F93082310933223119304231293072342
:10075800139308A800F06EF818B18B211748FFF71B
:10076800CDFF0F23039302230493002105914FF437
:10077800A05306934FF48053079303A800F090FA10
:1007880018B199210D48FFF7B9FF00F039FB0C4B60
:10079800A3FB0030800900F07DFB042000F090FBF3
:1007A800002211464FF0FF3000F042FB15B05DF813
:1007B80004FB00BF00380240007000404C120008E3
:1007C800D34D621008B500F0A7FBFFF799FFFFF7BC
:1007D80091FEFEE708B5072000F018FB002211463D
:1007E8006FF00B0000F024FB002211466FF00A00A6
:1007F80000F01EFB002211466FF0090000F018FB04
:10080800002211466FF0040000F012FB002211468E
:100818006FF0030000F00CFB002211466FF001009E
:1008280000F006FB002211464FF0FF3000F000FBFD
:1008380008BD00BF002800F0A58130B583B004468C
:10084800036813F0010F5AD0A94B9B6803F00C03FF
:10085800042B0AD0A64B9B6803F00C03082B0DD180
:10086800A34B5B6813F4800F08D0A14B1B6813F4EB
:10087800003F44D06368002B41D185E16368B3F53C
:10088800803F05D19A4A136843F48033136015E01A
:10089800B3F5A02F09D1964B1A6842F480221A604A
:1008A8001A6842F480321A6008E0914B1A6822F400
:1008B80080321A601A6822F480221A6063687BB159
:1008C80000F04CFB054605E000F048FB401B64289F
:1008D80000F25C81864B1B6813F4003FF4D00EE0F5
:1008E80000F03CFB054605E000F038FB401B64289F
:1008F80000F24E817E4B1B6813F4003FF4D123684D
:1009080013F0020F50D07A4B9B6813F00C0F0AD0EB
:10091800774B9B6803F00C03082B16D1744B5B686C
:1009280013F4800F11D1724B1B6813F0020F03D020
:10093800E368012B40F02E816D4A136823F0F80319
:10094800216943EAC10313602EE0E368D3B10122B1
:10095800684B1A6000F002FB054605E000F0FEFA5D
:10096800401B022800F21881614B1B6813F0020F2C
:10097800F4D05F4A136823F0F803216943EAC103FE
:10098800136011E000225B4B1A6000F0E7FA05469D
:1009980005E000F0E3FA401B022800F2FF80544B08
:1009A8001B6813F0020FF4D1236813F0080F26D048
:1009B800636993B10122504B1A6000F0CFFA0546E3
:1009C80005E000F0CBFA401B022800F2E980484B12
:1009D8005B6F13F0020FF4D011E00022464B1A604F
:1009E80000F0BCFA054605E000F0B8FA401B022802
:1009F80000F2D8803E4B5B6F13F0020FF4D12368EE
:100A080013F0040F61D000230193394B1A6C42F0A4
:100A180080521A641B6C03F080530193019B374A80
:100A2800136843F48073136000F098FA054605E0F4
:100A380000F094FA401B022800F2B6802F4B1B6886
:100A480013F4807FF4D0A368012B05D1284A136FD3
:100A580043F00103136714E0052B09D1244B1A6FE7
:100A680042F004021A671A6F42F001021A6708E09E
:100A78001F4B1A6F22F001021A671A6F22F0040244
:100A88001A67A3688BB100F069FA054607E000F021
:100A980065FA401B41F28833984200F28780144B74
:100AA8001B6F13F0020FF2D00FE000F057FA054663
:100AB80006E000F053FA401B41F28833984277D899
:100AC8000B4B1B6F13F0020FF3D1A369002B71D0EE
:100AD800074A926802F00C02082A6DD0022B3ED118
:100AE8000022074B1A6000F039FA05460FE000BFF4
:100AF8000038024000004742800E47420070004024
:100B08006000474200F02AFA401B022856D82F4BB3
:100B18001B6813F0007FF5D1E269236A1343626A08
:100B280043EA8213A26A5208013A43EA0243E26A9C
:100B380043EA0263254A53600122254B1A6000F0FC
:100B48000DFA044604E000F009FA001B022837D821
:100B58001E4B1B6813F0007FF5D0002033E0002205
:100B68001B4B1A6000F0FAF9044604E000F0F6F9AD
:100B7800001B022826D8154B1B6813F0007FF5D1FF
:100B8800002020E00120704701201CE003201AE02B
:100B9800032018E0012016E0032014E0032012E0EF
:100BA800032010E003200EE003200CE003200AE0FD
:100BB800032008E0002006E0012004E0032002E012
:100BC800032000E0032003B030BD00BF003802401E
:100BD8006000474238B52F4B9B6803F00C03042B89
:100BE80055D0082B01D02C4838BD2A4B5A6802F042
:100BF8003F025B6813F4800F20D0264B5B68C3F379
:100C08008813DC000025690141EAD4616001041BF6
:100C180061EB0505A90141EA9461A001001B61EBA4
:100C28000501C01841F100014B0243EAD0534402C8
:100C3800204619460023FFF7D1FA1FE0154B5B68E1
:100C4800C3F38813DC000025690141EAD46160011F
:100C5800041B61EB0505A90141EA9461A001001B91
:100C680061EB0501C01841F100018B0243EA905382
:100C78008402204619460023FFF7B0FA054B5B684B
:100C8800C3F3014301335B00B0FBF3F038BD034805
:100C980038BD00BF003802400024F40000127A007A
:100CA800002800F0978070B50446514B1B6803F08C
:100CB8000F038B4208D2CBB24D4A1370136803F06E
:100CC8000F03994240F08880236813F0020F17D071
:100CD80013F0040F04D0474A936843F4E053936039
:100CE800236813F0080F04D0424A936843F4604322
:100CF80093604048836823F0F002A368134383603D
:100D08000D46236813F0010F2FD06268012A05D120
:100D1800384B1B6813F4003F0ED15FE0931E012B84
:100D280005D8344B1B6813F0007F05D158E0314BD0
:100D38001B6813F0020F55D02E498B6823F003036C
:100D480013438B6000F00AF9064606E000F006F946
:100D5800801B41F28833984246D8264B9B6803F0A3
:100D68000C036268B3EB820FF0D1214B1B6803F0D0
:100D78000F039D4207D2EAB21D4B1A701B6803F09D
:100D88000F039D4232D1236813F0040F06D019498E
:100D98008B6823F4E052E36813438B60236813F0F5
:100DA800080F07D0134A936823F46043216943EA84
:100DB800C1039360FFF70EFF0E4B9B68C3F3031349
:100DC8000D4AD35CD8400D4B1860002000F08EF817
:100DD800002070BD01207047012070BD012070BD4A
:100DE800012070BD012070BD032070BD012070BDC1
:100DF800003C024000380240581200080000002061
:100E0800014B1868704700BF00000020074AD368EC
:100E180023F4E0631B041B0C000200F4E060184399
:100E280040F0BF6040F40030D060704700ED00E053
:100E380030B4164BDB68C3F30223C3F10704042C58
:100E480028BF04241D1D062D01D9DD1E00E0002544
:100E5800012303FA04F4013C2140A940AB40013BC3
:100E68001A400A43002806DA00F00F001201D2B235
:100E7800074B1A5407E01201D2B200F1604000F5A6
:100E8800614080F8002330BC704700BF00ED00E0EF
:100E980014ED00E00138B0F1807F0AD2064B5860AB
:100EA800F021064A82F823100020986007221A6071
:100EB80070470120704700BF10E000E000ED00E03F
:100EC800042805D1054A136843F0040313607047EA
:100ED800024A136823F004031360704710E000E02F
:100EE800704700BF08B5FFF7FBFF08BD10B5044603
:100EF800074B1B680748A0FB03308009FFF7CAFFB0
:100F0800002221464FF0FF30FFF792FF002010BD6E
:100F180000000020D34D621008B50B4B1A6842F44C
:100F280000721A601A6842F480621A601A6842F401
:100F380080721A600320FFF769FF0020FFF7D6FFD1
:100F4800FFF748FC002008BD003C0240024A136835
:100F580001331360704700BF20000020014B186860
:100F6800704700BF2000002008B5FFF7EFFFFFF72C
:100F7800B9FF08BD0F49D1F8883043F47003C1F8B0
:100F880088300D4B1A6842F001021A600020986000
:100F98001A6822F0847222F480321A60074A5A6072
:100FA8001A6822F480221A60D8604FF000638B60C0
:100FB800704700BF00ED00E0003802401030002408
:100FC800F0B583B00024CDE00123A3400A6803EA0A
:100FD8000205AB4240F0C5804A68022A01D0122AB5
:100FE80010D1E608083650F826C004F0070297002A
:100FF8000F22BA402CEA020E0A69BA404EEA0202EF
:1010080040F82620026867000326BE40F64302EA3D
:10101800060E4A6802F00302BA404EEA0202026073
:101028004A6802F1FF3EBEF1010F03D9112A01D02F
:10103800122A10D1826806EA020ECA68BA404EEA3D
:1010480002028260426822EA03034A68C2F300127D
:10105800A2401A434260C3681E408B68BB403343BA
:10106800C3604B6813F0805F7BD000230193404B33
:101078005A6C42F480425A645B6C03F480430193D7
:10108800019BA608B21C3B4B53F8227004F00303E3
:101098009B000F229A4027EA0207374A90421DD048
:1010A80002F5806290421BD002F58062904219D00E
:1010B80002F58062904217D002F58062904215D006
:1010C80002F58062904213D002F58062904211D0FE
:1010D80002F5806290420FD107220EE000220CE058
:1010E80001220AE0022208E0032206E0042204E0CA
:1010F800052202E0062200E0082202FA03F33B433D
:1011080002361C4A42F826301C4B1A68EB4302EAA6
:1011180003064F6817F4803F01D045EA0206174AD4
:101128001660526803EA02064F6817F4003F01D0C0
:1011380045EA0206114A5660926803EA02064F68B9
:1011480017F4801F01D045EA02060C4A9660D2685F
:1011580013404E6816F4001F01D045EA0203074AFF
:10116800D36001340F2C7FF62FAF03B0F0BD00BF62
:10117800003802400038014000000240003C0140B5
:101188000AB181617047090481617047DFF834D082
:10119800002103E00C4B5B58435004310B480C4BC7
:1011A80042189A42F6D30B4A02E0002342F8043B65
:1011B800094B9A42F9D3FFF7DDFE00F011F8FFF76B
:1011C80001FB704700000220781200080000002090
:1011D800040000200400002024000020FEE7000096
:1011E80070B50E4B0E4CE41AA41000251E46A542FD
:1011F80004D056F8253098470135F8E700F016F87E
:10120800084C094BE41AA41000251E46A54204D038
:1012180056F8253098470135F8E770BD7012000878
:10122800701200087412000870120008F8B500BFA8
:10123800F8BC08BC9E467047F8B500BFF8BC08BCAF
:041248009E46704707
:10124C005372632F6D61696E2E6300000000000005
:0C125C000000000001020304060708095E
:08126800ACEFFF7F0100000064
:04127000AD010008C4
:0412740089010008E4
:041278000024F4005A
:040000050800119549
:00000001FF
